:100000000C94AC000C94D4000C94D4000C943802E2
:100010000C945C020C9480020C94D4000C94D400D8
:100020000C94D4000C94D4000C94D4000C94D40000
:100030000C94D4000C94D4000C94D4000C94D400F0
:100040000C9486070C94D4000C942A090C94710922
:100050000C94D4000C94D4000C94D4000C94D400D0
:100060000C94D4000C94D40000C2010001001100D3
:1000700011000C0000E100000A002500250021000D
:10008000009600001900390039003600127A00008D
:100090001F004600460044008070000022004D0012
:1000A0004D004A00004B00003600750075007200DC
:1000B000403800004A009C009C0099008025000008
:1000C0007200EC00EC00E900C0120000E900DA0167
:1000D000DA01D70160090000D701B603B603B30304
:1000E000B0040000B3036E076E076B072C0100001D
:1000F000DC0EC11DC11DBE1D000000002400270034
:100100002A0000000000250028002B00000000004D
:100110002300260029000404040404040404020249
:100120000202020203030303030301020408102076
:100130004080010204081020010204081020000081
:100140000007000201000003040600000000000098
:1001500000007C07D70A810711241FBECFEFD8E02B
:10016000DEBFCDBF11E0A0E0B1E0E0EBFAE102C0FC
:1001700005900D92A03AB107D9F712E0A0EAB1E0DC
:1001800001C01D92A73CB107E1F711E0C6E5D1E03F
:1001900004C02297FE010E94FE0BC235D107C9F7A9
:1001A0000E94270B0C944B0D0C9400002091E2014F
:1001B0003091E30128173907B9F49091A00180919B
:1001C000A1019817A1F0E091A001F0E0EE55FE4FDB
:1001D00080812091A00130E02F5F3F4F2F7330705E
:1001E0002093A00190E008958FEF9FEF08958FEF87
:1001F0009FEF08952091E2013091E301281739071C
:1002000071F49091A0018091A101981759F0E091AB
:10021000A001F0E0EE55FE4F808190E008958FEF51
:100220009FEF08958FEF9FEF08952091E2013091A5
:10023000E3012817390739F48FB7F8941092A10118
:100240001092A0018FBF08952091E2013091E30147
:100250002817390771F48091A1012091A00190E045
:10026000805C9F4F821B910960E470E00E94B30B99
:10027000089580E090E0089520E001972FEF8F3FF0
:100280009207D9F70895FC018091E2019091E30172
:100290008E179F0781F0838D8E7F838F8FB7F894A1
:1002A0001092A1011092A001F093E301E093E2010A
:1002B0008FBF81E0089580E00895EF92FF920F9341
:1002C0001F93CF93DF93EC018B8DEE85FF859D858A
:1002D00081FF04C08081892329F448C0808189235B
:1002E00009F044C08B899C890E943C0128E0E22EE1
:1002F000F12C01E010E08D899E890E943C01EE8581
:10030000FF8580819D85892311F0102B03C0802FEC
:1003100080951823000F0894E108F108E114F10416
:1003200051F78F89988D0E943C018B8D81FD10952E
:100330008091A1012091A00190E001968F739070AF
:1003400030E08217930779F0E091A101F0E0EE55DB
:10035000FE4F10838091A10190E001968F73907001
:100360008093A10103C08B8D81608B8FDF91CF9132
:100370001F910F91FF90EF900895FC01A189B28920
:100380009089662329F42C91892F8095822302C0BD
:100390008C91892B8C930895DF92EF92FF920F93AB
:1003A0001F93CF93DF93EC01F62E898D9A8D0097E2
:1003B00039F481E090E09B838A8380E090E047C03D
:1003C000EFB6F8948B8D61E081FF60E0CE010E9472
:1003D000BD01898D9A8D05960E943C018B8D08E0A8
:1003E00010E0DD24D39481FF15C08D2D8F2119F0ED
:1003F000CE0160E002C0CE0161E00E94BD01898DA6
:100400009A8D0E943C01DD0C0150104071F7CE0125
:1004100060E014C08D2D8F2119F0CE0161E002C083
:10042000CE0160E00E94BD01898D9A8D0E943C0141
:10043000DD0C0150104071F7CE0161E00E94BD015A
:10044000EFBE898D9A8D0E943C0181E090E0DF91A2
:10045000CF911F910F91FF90EF90DF9008958091C1
:10046000E2019091E301009711F00E945D0108956F
:100470001F920F920FB60F9211242F933F934F9319
:100480005F936F937F938F939F93AF93BF93EF93FC
:10049000FF930E942F02FF91EF91BF91AF919F9127
:1004A0008F917F916F915F914F913F912F910F901D
:1004B0000FBE0F901F9018951F920F920FB60F92BC
:1004C00011242F933F934F935F936F937F938F9359
:1004D0009F93AF93BF93EF93FF930E942F02FF91DF
:1004E000EF91BF91AF919F918F917F916F915F91AC
:1004F0004F913F912F910F900FBE0F901F90189525
:100500001F920F920FB60F9211242F933F934F9388
:100510005F936F937F938F939F93AF93BF93EF936B
:10052000FF930E942F02FF91EF91BF91AF919F9196
:100530008F917F916F915F914F913F912F910F908C
:100540000FBE0F901F9018951F93CF93DF93EC0170
:10055000162F862F61E00E949608812F61E00E948D
:10056000D508812F90E0FC01E65DFE4FE491E88B19
:10057000FC01EA5EFE4FE491F0E0EE0FFF1FEE5F3C
:10058000FE4F85919491898B9A8BDF91CF911F912A
:1005900008951F93CF93DF93EC01162F862F60E011
:1005A0000E9496088B8D81FD04C0812F61E00E941E
:1005B000D5081C87812F90E0FC01E65DFE4FE49199
:1005C000ED87FC01EA5EFE4FE491F0E0EE0FFF1FC5
:1005D000E45FFE4F859194918E879F87DF91CF9145
:1005E0001F9108951F93CF93DF93EC01162F1B8269
:1005F0001A8288EE93E0A0E0B0E08C839D83AE8306
:10060000BF8384E091E0998388831C8A1B8A1E8AB9
:100610001D8A188E1F8A1A8E198E8B8D2170220FBB
:100620008C7F822B8B8FCE01642F0E94A402CE017F
:10063000612F0E94C902DF91CF911F910895CF923F
:10064000DF92EF92FF92CF93DF93EC016A017B017F
:100650001A8E198E188E1F8A1E8A1D8A1C8A1B8A62
:1006600020E030E0A901440F551F420F531F440FF3
:10067000551F440F551FFA01E859FF4F8591959179
:10068000A591B4918C159D05AE05BF05E9F4FA015D
:10069000E459FF4F859194918B8B9C8BFA01E25921
:1006A000FF4F859194918D8B9E8BFA01E059FF4FFE
:1006B000859194918F8B988F4E585F4FFA01859159
:1006C0009491898F9A8F06C02F5F3F4F2C30310550
:1006D00009F0C8CF8F89988D009709F448C09C8590
:1006E000963108F040C020916800983020F09E308C
:1006F00020F082E003C084E001C081E0822B80937F
:1007000068005C85583048F05E3060F05631C8F1C2
:10071000E0E0F0E0A0E0B0E009C0EDE6F0E0ADE63A
:10072000B0E004C0EBE6F0E0ABE6B0E04C9158304E
:1007300040F481E090E002C0880F991F5A95E2F7DB
:1007400010C0252F30E05E3018F42850304002C031
:100750002E50304081E090E002C0880F991F2A950A
:10076000E2F7842B8083898D9A8D0E943C01CE0113
:100770000E944301DF91CF91FF90EF90DF90CF90E7
:100780000895ECE6F0E0ACE6B0E0D0CFFC014485A3
:10079000463150F5483028F04E3030F0ECE6F0E0CD
:1007A00005C0EDE6F0E002C0EBE6F0E05081483035
:1007B00040F481E090E002C0880F991F4A95E2F76B
:1007C00010C0242F30E04E3018F42850304002C0C2
:1007D0002E50304081E090E002C0880F991F2A958A
:1007E000E2F7809585238083089524E031E0FC01C1
:1007F000318320830E94C6030895CF93DF93EC01D9
:1008000020E00E94F202CE014C960E947406CE01B6
:1008100040E855E260E070E00E941F03CE010E94B4
:100820004301CE010E941501DF91CF9108950E94EE
:10083000310D21E0009709F420E0822F0895CF9236
:10084000DF92EF92FF920F931F93CF93DF9300D02D
:100850000F92CDB7DEB78C0130E040E020E0C80158
:100860002A8339834B830E9424012A8139814B8159
:100870000097A9F3C8010E94D6002A8139814B81D3
:10088000803269F38C3359F38E3331F08835C1F1FE
:100890008935C9F151E001C050E03130C1F48832EE
:1008A000B1F18D3299F1893291F1442339F4C82E96
:1008B000DD2480ED9FEFC80ED91E29C0413039F5E7
:1008C00090E0C097CC24DD24C81AD90A17C0213083
:1008D000F1F48832E1F08D32C9F08932C1F090E054
:1008E000C0978A30910598F4442311F47C010FC01D
:1008F000413069F4EE24FF24E81AF90A40E007C009
:1009000020E031E0ACCF21E030E0A9CF41E0552339
:1009100009F0A5CFF801D58EC48EF78EE68E0F9024
:100920000F900F90DF91CF911F910F91FF90EF905B
:10093000DF90CF9008951F93CF93DF93D82FC92FC7
:10094000142F80914501813069F464EF71E080E0FB
:1009500090E00E9402088D2F9C2F0E94150110929A
:10096000450123C08D2F0E94610B8D2F9C2F0E946B
:100970002401009771F08D2F9C2F0E94D600C82F64
:1009800084EA92E06C2F0E94610B81E0C11769F448
:100990000DC084EA92E060E271E00E94A00B68EE74
:1009A00073E080E090E00E94020880E0DF91CF9148
:1009B0001F9108950F931F93CF93DF938C01809124
:1009C0004401813089F5F801158E148E178E168E2C
:1009D000C8010E94150164E670E080E090E00E948A
:1009E0000208C80165E271E00E949D0B64E670E0B8
:1009F00080E090E00E940208C80167E271E00E9476
:100A00009D0B64E670E080E090E00E940208C8015F
:100A100065E271E00E949D0B84EA92E069E271E078
:100A20000E94A00B10924401C8010E94240100976B
:100A300071F0E8016C96CE010E94A606C8010E94E2
:100A40001F04C8010E941501CE010E94A606C8011C
:100A50004C960E94D006DF91CF911F910F9108957F
:100A6000CF93DF93D82FC92F60E371E00E949D0BD5
:100A700068EC70E080E090E00E9402088D2F9C2FCF
:100A800064E371E00E949D0BDF91CF9108954F9236
:100A90005F926F927F928F929F92AF92BF92CF920E
:100AA000DF92EF92FF920F931F93CF93DF938C010E
:100AB0004B014130510511F40E94300580E590E072
:100AC0000E94020CEC018FE4FE0111928A95E9F775
:100AD0000E94CE072B013C01CC24DD24EE24FF2410
:100AE000AA2497FCA094BA2CC8010E942401009764
:100AF00051F0C8010E94D600FE01EE0DFF1D80835B
:100B00000894E11CF11CCE016CE371E00E94170413
:100B1000882341F00894C11CD11CF3E0CF16D10406
:100B2000ACF4E2CFCE0161E471E00E9417048823A7
:100B300079F40E94CE07DC01CB0184199509A6093E
:100B4000B70988169906AA06BB0670F680E001C0B0
:100B500081E0DF91CF911F910F91FF90EF90DF9097
:100B6000CF90BF90AF909F908F907F906F905F904D
:100B70004F9008950F931F93CF93DF938C014130D3
:100B8000510509F055C06115710509F447C077FD9D
:100B90000AC0FB01EE0FFF1FEA5BFE4FC081D1814F
:100BA00085E060E00CC0EE27FF27E61BF70BEE0F99
:100BB000FF1FEA5BFE4FC081D18185E061E00E94AA
:100BC000D5080E94DC07AB01BC01F8018185928544
:100BD000A385B485481B590B6A0B7B0BCE01AA2752
:100BE00097FDA095BA2F481759076A077B0708F4A5
:100BF00076C085819681009751F484E061E00E947F
:100C0000D50881E090E0F8019683858307C084E0F1
:100C100060E00E94D508F801168215820E94DC0768
:100C2000DC01CB01F80181879287A387B48757C085
:100C30004230510509F053C06115710509F446C0F1
:100C400077FD0AC0FB01EE0FFF1FEA5BFE4FC0817C
:100C5000D18187E060E00CC0EE27FF27E61BF70B91
:100C6000EE0FFF1FEA5BFE4FC081D18187E061E09C
:100C70000E94D5080E94DC07AB01BC01F801858504
:100C80009685A785B089481B590B6A0B7B0BCE0153
:100C9000AA2797FDA095BA2F481759076A077B071F
:100CA000F0F087819085009751F486E061E00E9422
:100CB000D50881E090E0F8019087878307C086E03F
:100CC00060E00E94D508F801108617820E94DC07B8
:100CD000DC01CB01F80185879687A787B08BDF9170
:100CE000CF911F910F910895CF93DF93EC0181E095
:100CF0008C831E821D8218861F820E94DC07DC0105
:100D0000CB0189879A87AB87BC870E94DC07DC010F
:100D1000CB018D879E87AF87B88B81E090E0998368
:100D200088839B838A8384E061E00E94960885E043
:100D300061E00E94960886E061E00E94960887E0E4
:100D400061E00E949608DF91CF910895CF93DF93E1
:100D5000EC010E94DC07DC01CB0189879A87AB8715
:100D6000BC870E94DC07DC01CB018D879E87AF87A3
:100D7000B88B1E821D8218861F8287E060E00E9469
:100D8000D50885E060E00E94D50884E060E00E941C
:100D9000D50886E060E00E94D508DF91CF910895E4
:100DA000CF93DF93EC018C81813089F40E94DC07C2
:100DB000DC01CB0189879A87AB87BC870E94DC075F
:100DC000DC01CB018D879E87AF87B88B1C82688141
:100DD0007981CE0141E050E00E94BA056A817B81B1
:100DE000CE0142E050E00E94BA05DF91CF91089514
:100DF0008130910539F486EE91E063E042E00E9493
:100E0000FD030895009721F486EE91E00E94F5031A
:100E1000089588E061E00E94960888E061E00E9401
:100E2000D508089589E061E00E94960889E061E0B4
:100E30000E94D5080895CF93DF930F92CDB7DEB708
:100E4000482F84EA92E06AE571E049830E94A00B92
:100E500086EE91E060E47FE1498150E00E94470521
:100E60008093E501882339F484EA92E068E671E032
:100E70000E94A00B08C084EA92E067E771E00E943C
:100E8000A00B0E9409070F90DF91CF91089584EA8B
:100E900092E040E855E260E070E00E94AC0981E039
:100EA0000E941B0708958091E5018130B9F480917B
:100EB000E4018823C1F486EE91E062E742E70E94F4
:100EC0009B048093E4018130B1F40E94120784EA0C
:100ED00092E066E871E00E949D0B0895882319F462
:100EE0000E941B0708958091E401813021F486EE71
:100EF00091E00E94DA04089581E090E00E94F806F3
:100F0000089580E090E00E94F80608951F920F92E5
:100F10000FB60F9211242F933F938F939F93AF930C
:100F2000BF938091170290911802A0911902B0917D
:100F30001A0230911B020196A11DB11D232F2D5FB6
:100F40002D3720F02D570196A11DB11D20931B02B6
:100F50008093170290931802A0931902B0931A027B
:100F60008091130290911402A0911502B091160283
:100F70000196A11DB11D8093130290931402A093BA
:100F80001502B0931602BF91AF919F918F913F913F
:100F90002F910F900FBE0F901F9018958FB7F89458
:100FA00020911702309118024091190250911A02B3
:100FB0008FBFB901CA0108959FB7F8942091130219
:100FC00030911402409115025091160286B5A89BEB
:100FD00006C08F3F21F02F5F3F4F4F4F5F4F9FBFA6
:100FE000542F432F322F2227280F311D411D511D11
:100FF00082E0220F331F441F551F8A95D1F7B90194
:10100000CA0108959B01AC017FB7F8948091130247
:1010100090911402A0911502B091160266B5A89B9A
:1010200005C06F3F19F00196A11DB11D7FBFBA2FFA
:10103000A92F982F8827860F911DA11DB11D62E051
:10104000880F991FAA1FBB1F6A95D1F7BC012DC03D
:10105000FFB7F8948091130290911402A0911502A9
:10106000B0911602E6B5A89B05C0EF3F19F00196B6
:10107000A11DB11DFFBFBA2FA92F982F88278E0F52
:10108000911DA11DB11DE2E0880F991FAA1FBB1F72
:10109000EA95D1F7861B970B885E9340C8F22150E2
:1010A00030404040504068517C4F2115310541058A
:1010B000510571F60895789484B5826084BD84B535
:1010C000816084BD85B5826085BD85B5816085BD43
:1010D000EEE6F0E0808181608083E1E8F0E010825C
:1010E000808182608083808181608083E0E8F0E09D
:1010F000808181608083E1EBF0E080818460808387
:10110000E0EBF0E0808181608083EAE7F0E08081BD
:10111000846080838081826080838081816080831D
:101120008081806880831092C1000895CF93DF93FF
:10113000482F50E0CA01865D9E4FFC0134914A5E03
:101140005E4FFA018491882369F190E0880F991F1E
:10115000FC01E850FF4FA591B491FC01EE5FFE4FFA
:10116000C591D491662351F42FB7F8948C91932FA5
:10117000909589238C93888189230BC0623061F418
:101180002FB7F8948C91932F909589238C93888115
:10119000832B88832FBF06C09FB7F8948C91832B35
:1011A0008C939FBFDF91CF910895482F50E0CA01E3
:1011B000825C9E4FFC012491CA01865D9E4FFC011A
:1011C00094914A5E5E4FFA013491332309F440C092
:1011D000222351F1233071F0243028F42130A1F082
:1011E000223011F514C02630B1F02730C1F0243080
:1011F000D9F404C0809180008F7703C08091800073
:101200008F7D8093800010C084B58F7702C084B535
:101210008F7D84BD09C08091B0008F7703C080911D
:10122000B0008F7D8093B000E32FF0E0EE0FFF1F42
:10123000EE5FFE4FA591B4912FB7F894662321F489
:101240008C919095892302C08C91892B8C932FBF10
:10125000089508951F920F920FB60F9211242F93A5
:101260003F934F938F939F93EF93FF934091C600CB
:1012700020915C0230915D022F5F3F4F2F733070E1
:1012800080915E0290915F022817390759F0E09132
:101290005C02F0915D02E45EFD4F408330935D029D
:1012A00020935C02FF91EF919F918F914F913F911D
:1012B0002F910F900FBE0F901F901895E091B002E4
:1012C000F091B102E05CFF4F8191919120813181D9
:1012D000821B930B8F739070892B11F00E94290948
:1012E00008951F920F920FB60F9211242F933F93E0
:1012F0008F939F93EF93FF932091A0023091A102CF
:101300008091A2029091A3022817390731F48091AD
:10131000C1008F7D8093C10014C0E091A202F091C2
:10132000A302E05AFD4F20818091A2029091A30276
:1013300001968F7390709093A3028093A2022093E2
:10134000C600FF91EF919F918F913F912F910F9048
:101350000FBE0F901F901895AF92BF92DF92EF9241
:10136000FF920F931F93CF93DF93EC017A018B01D0
:10137000DD24403081EE580780E0680780E0780780
:1013800011F0DD24D39491E0A92EB12CEC89FD89D4
:10139000DD2069F0C5010E8C02C0880F991F0A94E8
:1013A000E2F7808360E079E08DE390E005C0108291
:1013B00060E874E88EE190E0A80197010E94C60BF6
:1013C00021503040404050405695479537952795DD
:1013D00080E12030380720F0DD2011F0DD24D6CF69
:1013E000E889F9893083EA89FB892083EE89FF89BE
:1013F000408121E030E0C9010A8C02C0880F991FAA
:101400000A94E2F7482B4083EE89FF894081C901A5
:101410000B8C02C0880F991F0A94E2F7482B408377
:10142000EE89FF894081C9010C8C02C0880F991F89
:101430000A94E2F7482B4083EE89FF8980810D8C66
:1014400002C0220F331F0A94E2F72095282320833D
:10145000DF91CF911F910F91FF90EF90DF90BF90A0
:10146000AF900895DC011C96ED91FC911D97E05C16
:10147000FF4F2191319180819181281B390B2F736E
:101480003070C9010895DC011C96ED91FC911D9707
:10149000E05CFF4F20813181E054F040DF01AE5B22
:1014A000BF4F8D919C9111972817390719F42FEF91
:1014B0003FEF07C08D919C91E80FF91F8081282F85
:1014C00030E0C9010895DC011C96ED91FC911D9757
:1014D000E05CFF4F20813181E054F040DF01AE5BE2
:1014E000BF4F8D919C9111972817390719F42FEF51
:1014F0003FEF10C08D919C911197E80FF91F20814B
:101500008D919C91119701968F73907011969C9379
:101510008E9330E0C9010895FC0186859785DC0132
:10152000A05CBF4FFC01EE5BFF4F2D913C911197EA
:101530008081918128173907C1F70895CF93DF93F0
:10154000EC01EE85FF85E05CFF4F20813181E054A6
:10155000F0402F5F3F4F2F733070DF01AE5BBF4F06
:101560008D919C91119728173907D1F3E05CFF4FBB
:1015700080819181E054F040E80FF91F6083EE858F
:10158000FF85E05CFF4F31832083EE89FF89208156
:1015900081E090E00D8C02C0880F991F0A94E2F759
:1015A000282B208381E090E0DF91CF910895109265
:1015B000A7021092A60288EE93E0A0E0B0E080932C
:1015C000A8029093A902A093AA02B093AB0284E967
:1015D00091E09093A5028093A4028CE192E0909315
:1015E000B1028093B00280E692E09093B3028093C0
:1015F000B20285EC90E09093B5028093B40284EC43
:1016000090E09093B7028093B60280EC90E09093C4
:10161000B9028093B80281EC90E09093BB02809372
:10162000BA0286EC90E09093BD028093BC0284E005
:101630008093BE0283E08093BF0287E08093C00264
:1016400085E08093C10281E08093C2020895CF9328
:10165000DF930E945B080E944707CEE5D9E00E9415
:1016600053072097E1F30E945E09F9CF0895CF92C6
:10167000DF92EF92FF920F931F93CF93DF937C0142
:101680006B018A01C0E0D0E00FC0D6016D916D0101
:10169000D701ED91FC910190F081E02DC7010995F2
:1016A000C80FD91F015010400115110571F7CE0167
:1016B000DF91CF911F910F91FF90EF90DF90CF902E
:1016C0000895DC01ED91FC910190F081E02D0995E8
:1016D0000895EF92FF920F931F938C01DC01ED911F
:1016E000FC910190F081E02D6DE009957C01D8011D
:1016F000ED91FC910190F081E02DC8016AE009951F
:101700009C012E0D3F1DC9011F910F91FF90EF907D
:101710000895CF93DF93DB010D900020E9F7119737
:10172000A61BB70BEC01E881F9810280F381E02D63
:10173000AD010995DF91CF9108950E94890B08951D
:10174000EF92FF920F931F937C010E94890B8C01F3
:10175000C7010E94690B080F191FC8011F910F9143
:10176000FF90EF90089597FB092E07260AD077FD8A
:1017700004D02ED006D000201AF4709561957F4FCA
:101780000895F6F7909581959F4F0895A1E21A2E3E
:10179000AA1BBB1BFD010DC0AA1FBB1FEE1FFF1F15
:1017A000A217B307E407F50720F0A21BB30BE40B65
:1017B000F50B661F771F881F991F1A9469F76095AC
:1017C0007095809590959B01AC01BD01CF01089566
:1017D000AA1BBB1B51E107C0AA1FBB1FA617B70757
:1017E00010F0A61BB70B881F991F5A95A9F7809573
:1017F0009095BC01CD010895EE0FFF1F0590F49167
:10180000E02D0994CF93DF93AC018230910510F461
:1018100042E050E0E091C502F091C60220E030E0E5
:10182000A0E0B0E024C08081918184179507D0F0BA
:101830008417950771F482819381109729F013968C
:101840009C938E9312972CC09093C6028093C502EE
:1018500027C02115310519F08217930718F49C0150
:10186000BD01EF0192818381DF01E92FF82F3097CD
:10187000D1F621153105F9F0C901841B950B84308F
:10188000910580F48A819B816115710521F0FB012E
:101890009383828304C09093C6028093C502FE01A5
:1018A000329642C0FE01E80FF91F4193519302970F
:1018B0009983888339C08091C3029091C4020097B4
:1018C00041F480918C0190918D019093C40280939A
:1018D000C30220918A0130918B012115310541F419
:1018E0002DB73EB780918E0190918F01281B390B47
:1018F000E091C302F091C402E217F30798F42E1BA3
:101900003F0B2417350770F0CA01029628173907D4
:1019100048F08E0F9F1F9093C4028093C30241939F
:10192000519302C0E0E0F0E0CF01DF91CF91089544
:101930000F931F93CF93DF939C01009709F48CC002
:10194000DC01129713961C921E9212976091C502A9
:101950007091C6026115710589F48D919C91119762
:10196000820F931F2091C3023091C40228173907B8
:1019700069F5B093C402A093C3026EC0FB0140E0BE
:1019800050E001C0FC01EA17FB0730F4828193812B
:10199000AF010097B9F71FC0E9012297FB83EA83E3
:1019A00008811981C901800F911F8E179F0759F473
:1019B00080819181800F911F029699838883828113
:1019C00093819B838A834115510529F4B093C60204
:1019D000A093C50241C0FA01B383A283C191D19102
:1019E000EC0FFD1FAE17BF0781F4F90192918291B0
:1019F0008C0F9D1F0296DA0111969C938E93828123
:101A0000938113969C938E931297E0E0F0E002C0CE
:101A1000FB01BC01DB0112968D919C9113970097FD
:101A2000B9F7CB0102962D913C911197820F931F2C
:101A30002091C3023091C4022817390769F4309706
:101A400029F41092C6021092C50202C013821282BB
:101A50007093C4026093C302DF91CF911F910F91E5
:101A60000895FB0151915523A9F0BF01DC014D916F
:101A700045174111E1F759F4CD010190002049F0DB
:101A80004D9140154111C9F3FB014111EFCF81E0A8
:101A900090E00197089511E0C6E5D1E004C0FE0191
:101AA0000E94FE0B2296C835D107C9F7F894FFCFE4
:101AB00000000000CC01370B2401D600FA0015010C
:101AC00000000000360B370B360B360B360B360B8F
:101AD0006E6F6E650058004F005265616479210099
:101AE000242424007265626F6F740D004E4F4E45C2
:101AF000004F4B000101000000003200640096001E
:101B0000C800900158022003E803436865636B69CD
:101B10006E672057694669004E6F2057692D4669E8
:101B200020466F756E64005769466920436F6E6E7C
:101B3000656374656400594553000000C7022000C6
:101B4000000000009E0A370B320A630A430A8C0A1F
:00000001FF
